{
  "_format": "hh3-artifact-1",
  "contractName": "LendingPool",
  "sourceName": "contracts/core/LendingPool.sol",
  "abi": [
    {
      "inputs": [
        {
          "internalType": "address",
          "name": "_usdc",
          "type": "address"
        },
        {
          "internalType": "address",
          "name": "_oracle",
          "type": "address"
        },
        {
          "internalType": "address",
          "name": "_interest",
          "type": "address"
        }
      ],
      "stateMutability": "nonpayable",
      "type": "constructor"
    },
    {
      "inputs": [],
      "name": "ExceedsBorrowLimit",
      "type": "error"
    },
    {
      "inputs": [],
      "name": "NotEnoughCollateral",
      "type": "error"
    },
    {
      "inputs": [
        {
          "internalType": "address",
          "name": "owner",
          "type": "address"
        }
      ],
      "name": "OwnableInvalidOwner",
      "type": "error"
    },
    {
      "inputs": [
        {
          "internalType": "address",
          "name": "account",
          "type": "address"
        }
      ],
      "name": "OwnableUnauthorizedAccount",
      "type": "error"
    },
    {
      "inputs": [],
      "name": "ReentrancyGuardReentrantCall",
      "type": "error"
    },
    {
      "inputs": [],
      "name": "TransferFailed",
      "type": "error"
    },
    {
      "inputs": [],
      "name": "UnsafePosition",
      "type": "error"
    },
    {
      "inputs": [],
      "name": "ZeroAmount",
      "type": "error"
    },
    {
      "anonymous": false,
      "inputs": [
        {
          "indexed": true,
          "internalType": "address",
          "name": "user",
          "type": "address"
        },
        {
          "indexed": false,
          "internalType": "uint256",
          "name": "amount",
          "type": "uint256"
        }
      ],
      "name": "Borrow",
      "type": "event"
    },
    {
      "anonymous": false,
      "inputs": [
        {
          "indexed": true,
          "internalType": "address",
          "name": "user",
          "type": "address"
        },
        {
          "indexed": false,
          "internalType": "uint256",
          "name": "amount",
          "type": "uint256"
        }
      ],
      "name": "Deposit",
      "type": "event"
    },
    {
      "anonymous": false,
      "inputs": [
        {
          "indexed": true,
          "internalType": "address",
          "name": "liquidator",
          "type": "address"
        },
        {
          "indexed": true,
          "internalType": "address",
          "name": "user",
          "type": "address"
        },
        {
          "indexed": false,
          "internalType": "uint256",
          "name": "repayAmount",
          "type": "uint256"
        }
      ],
      "name": "Liquidate",
      "type": "event"
    },
    {
      "anonymous": false,
      "inputs": [
        {
          "indexed": true,
          "internalType": "address",
          "name": "previousOwner",
          "type": "address"
        },
        {
          "indexed": true,
          "internalType": "address",
          "name": "newOwner",
          "type": "address"
        }
      ],
      "name": "OwnershipTransferred",
      "type": "event"
    },
    {
      "anonymous": false,
      "inputs": [
        {
          "indexed": true,
          "internalType": "address",
          "name": "user",
          "type": "address"
        },
        {
          "indexed": false,
          "internalType": "uint256",
          "name": "amount",
          "type": "uint256"
        }
      ],
      "name": "Repay",
      "type": "event"
    },
    {
      "anonymous": false,
      "inputs": [
        {
          "indexed": true,
          "internalType": "address",
          "name": "user",
          "type": "address"
        },
        {
          "indexed": false,
          "internalType": "uint256",
          "name": "amount",
          "type": "uint256"
        }
      ],
      "name": "Withdraw",
      "type": "event"
    },
    {
      "inputs": [],
      "name": "LIQ_BONUS",
      "outputs": [
        {
          "internalType": "uint256",
          "name": "",
          "type": "uint256"
        }
      ],
      "stateMutability": "view",
      "type": "function"
    },
    {
      "inputs": [],
      "name": "LIQ_THRESHOLD",
      "outputs": [
        {
          "internalType": "uint256",
          "name": "",
          "type": "uint256"
        }
      ],
      "stateMutability": "view",
      "type": "function"
    },
    {
      "inputs": [],
      "name": "LTV",
      "outputs": [
        {
          "internalType": "uint256",
          "name": "",
          "type": "uint256"
        }
      ],
      "stateMutability": "view",
      "type": "function"
    },
    {
      "inputs": [],
      "name": "ORACLE_DECIMALS",
      "outputs": [
        {
          "internalType": "uint256",
          "name": "",
          "type": "uint256"
        }
      ],
      "stateMutability": "view",
      "type": "function"
    },
    {
      "inputs": [],
      "name": "PRECISION",
      "outputs": [
        {
          "internalType": "uint256",
          "name": "",
          "type": "uint256"
        }
      ],
      "stateMutability": "view",
      "type": "function"
    },
    {
      "inputs": [
        {
          "internalType": "uint256",
          "name": "amount",
          "type": "uint256"
        }
      ],
      "name": "borrow",
      "outputs": [],
      "stateMutability": "nonpayable",
      "type": "function"
    },
    {
      "inputs": [
        {
          "internalType": "address",
          "name": "",
          "type": "address"
        }
      ],
      "name": "collateralETH",
      "outputs": [
        {
          "internalType": "uint256",
          "name": "",
          "type": "uint256"
        }
      ],
      "stateMutability": "view",
      "type": "function"
    },
    {
      "inputs": [
        {
          "internalType": "address",
          "name": "",
          "type": "address"
        }
      ],
      "name": "debtUSDC",
      "outputs": [
        {
          "internalType": "uint256",
          "name": "",
          "type": "uint256"
        }
      ],
      "stateMutability": "view",
      "type": "function"
    },
    {
      "inputs": [],
      "name": "deposit",
      "outputs": [],
      "stateMutability": "payable",
      "type": "function"
    },
    {
      "inputs": [
        {
          "internalType": "address",
          "name": "user",
          "type": "address"
        }
      ],
      "name": "getAccountData",
      "outputs": [
        {
          "internalType": "uint256",
          "name": "collateralValue",
          "type": "uint256"
        },
        {
          "internalType": "uint256",
          "name": "debt",
          "type": "uint256"
        },
        {
          "internalType": "uint256",
          "name": "healthFactor",
          "type": "uint256"
        }
      ],
      "stateMutability": "view",
      "type": "function"
    },
    {
      "inputs": [],
      "name": "interestModel",
      "outputs": [
        {
          "internalType": "contract IInterestRateModel",
          "name": "",
          "type": "address"
        }
      ],
      "stateMutability": "view",
      "type": "function"
    },
    {
      "inputs": [
        {
          "internalType": "address",
          "name": "user",
          "type": "address"
        },
        {
          "internalType": "uint256",
          "name": "repayAmount",
          "type": "uint256"
        }
      ],
      "name": "liquidate",
      "outputs": [],
      "stateMutability": "nonpayable",
      "type": "function"
    },
    {
      "inputs": [],
      "name": "oracle",
      "outputs": [
        {
          "internalType": "contract IPriceOracle",
          "name": "",
          "type": "address"
        }
      ],
      "stateMutability": "view",
      "type": "function"
    },
    {
      "inputs": [],
      "name": "owner",
      "outputs": [
        {
          "internalType": "address",
          "name": "",
          "type": "address"
        }
      ],
      "stateMutability": "view",
      "type": "function"
    },
    {
      "inputs": [],
      "name": "renounceOwnership",
      "outputs": [],
      "stateMutability": "nonpayable",
      "type": "function"
    },
    {
      "inputs": [
        {
          "internalType": "uint256",
          "name": "amount",
          "type": "uint256"
        }
      ],
      "name": "repay",
      "outputs": [],
      "stateMutability": "nonpayable",
      "type": "function"
    },
    {
      "inputs": [
        {
          "internalType": "address",
          "name": "newOwner",
          "type": "address"
        }
      ],
      "name": "transferOwnership",
      "outputs": [],
      "stateMutability": "nonpayable",
      "type": "function"
    },
    {
      "inputs": [],
      "name": "usdc",
      "outputs": [
        {
          "internalType": "contract MockUSDC",
          "name": "",
          "type": "address"
        }
      ],
      "stateMutability": "view",
      "type": "function"
    },
    {
      "inputs": [
        {
          "internalType": "uint256",
          "name": "amount",
          "type": "uint256"
        }
      ],
      "name": "withdraw",
      "outputs": [],
      "stateMutability": "nonpayable",
      "type": "function"
    }
  ],
  "bytecode": "0x60e060405234801561000f575f5ffd5b5060405161117738038061117783398101604081905261002e916100ea565b60015f55338061005757604051631e4fbdf760e01b81525f600482015260240160405180910390fd5b6100608161007e565b506001600160a01b0392831660805290821660a0521660c05261012a565b600180546001600160a01b038381166001600160a01b0319831681179093556040519116919082907f8be0079c531659141344cd1fd0a4f28419497f9722a3daafe3b4186f6b6457e0905f90a35050565b80516001600160a01b03811681146100e5575f5ffd5b919050565b5f5f5f606084860312156100fc575f5ffd5b610105846100cf565b9250610113602085016100cf565b9150610121604085016100cf565b90509250925092565b60805160a05160c051610ff26101855f395f61033901525f81816102a3015281816108740152610d5501525f818161018f0152818161051a015281816105a901528181610755015281816107e40152610acb0152610ff25ff3fe608060405260043610610110575f3560e01c806371f389411161009d578063ac165d7a11610062578063ac165d7a14610328578063bcbaf4871461035b578063c5ebeaec1461037a578063d0e30db014610399578063f2fde38b146103a1575f5ffd5b806371f38941146102785780637dc0d1d0146102925780638da5cb5b146102c5578063a110d77a146102e2578063aaf5eb681461030d575f5ffd5b806354a67352116100e357806354a67352146101c95780635d78650e146101e457806362965d8e1461021e5780636ad3d82b14610239578063715018a614610264575f5ffd5b80631ea15502146101145780632e1a7d4d1461013e578063371fd8e61461015f5780633e413bee1461017e575b5f5ffd5b34801561011f575f5ffd5b5061012b6305f5e10081565b6040519081526020015b60405180910390f35b348015610149575f5ffd5b5061015d610158366004610e96565b6103c0565b005b34801561016a575f5ffd5b5061015d610179366004610e96565b6104b5565b348015610189575f5ffd5b506101b17f000000000000000000000000000000000000000000000000000000000000000081565b6040516001600160a01b039091168152602001610135565b3480156101d4575f5ffd5b5061012b670b1a2bc2ec50000081565b3480156101ef575f5ffd5b506102036101fe366004610ec8565b61066b565b60408051938452602084019290925290820152606001610135565b348015610229575f5ffd5b5061012b670a688906bd8b000081565b348015610244575f5ffd5b5061012b610253366004610ec8565b60026020525f908152604090205481565b34801561026f575f5ffd5b5061015d6106a5565b348015610283575f5ffd5b5061012b66b1a2bc2ec5000081565b34801561029d575f5ffd5b506101b17f000000000000000000000000000000000000000000000000000000000000000081565b3480156102d0575f5ffd5b506001546001600160a01b03166101b1565b3480156102ed575f5ffd5b5061012b6102fc366004610ec8565b60036020525f908152604090205481565b348015610318575f5ffd5b5061012b670de0b6b3a764000081565b348015610333575f5ffd5b506101b17f000000000000000000000000000000000000000000000000000000000000000081565b348015610366575f5ffd5b5061015d610375366004610ee8565b6106b8565b348015610385575f5ffd5b5061015d610394366004610e96565b6109f4565b61015d610b6a565b3480156103ac575f5ffd5b5061015d6103bb366004610ec8565b610bf3565b6103c8610c32565b805f036103e857604051631f2a200560e01b815260040160405180910390fd5b335f908152600260205260409020548111156104165760405162d11df360e61b815260040160405180910390fd5b335f9081526002602052604081208054839290610434908490610f24565b90915550670de0b6b3a7640000905061044c33610c5a565b101561046a57604051624ce22360e71b815260040160405180910390fd5b6104743382610cdc565b60405181815233907f884edad9ce6fa2440d8a54cc123490eb96d2768479d49ff9c7366125a94243649060200160405180910390a26104b260015f55565b50565b6104bd610c32565b805f036104dd57604051631f2a200560e01b815260040160405180910390fd5b335f90815260036020526040902054808211156104f8578091505b6040516323b872dd60e01b8152336004820152306024820152604481018390527f00000000000000000000000000000000000000000000000000000000000000006001600160a01b0316906323b872dd906064016020604051808303815f875af1158015610568573d5f5f3e3d5ffd5b505050506040513d601f19601f8201168201806040525081019061058c9190610f3d565b50604051632770a7eb60e21b8152306004820152602481018390527f00000000000000000000000000000000000000000000000000000000000000006001600160a01b031690639dc29fac906044015f604051808303815f87803b1580156105f2575f5ffd5b505af1158015610604573d5f5f3e3d5ffd5b5050335f9081526003602052604081208054869450909250610627908490610f24565b909155505060405182815233907f5c16de4f8b59bd9caf0f49a545f25819a895ed223294290b408242e72a5942319060200160405180910390a2506104b260015f55565b5f5f5f61067784610d51565b6001600160a01b0385165f90815260036020526040902054909350915061069d84610c5a565b929491935050565b6106ad610e18565b6106b65f610e45565b565b6106c0610c32565b670de0b6b3a76400006106d283610c5a565b106106ef57604051624ce22360e71b815260040160405180910390fd5b805f0361070f57604051631f2a200560e01b815260040160405180910390fd5b6001600160a01b0382165f9081526003602052604090205480821115610733578091505b6040516323b872dd60e01b8152336004820152306024820152604481018390527f00000000000000000000000000000000000000000000000000000000000000006001600160a01b0316906323b872dd906064016020604051808303815f875af11580156107a3573d5f5f3e3d5ffd5b505050506040513d601f19601f820116820180604052508101906107c79190610f3d565b50604051632770a7eb60e21b8152306004820152602481018390527f00000000000000000000000000000000000000000000000000000000000000006001600160a01b031690639dc29fac906044015f604051808303815f87803b15801561082d575f5ffd5b505af115801561083f573d5f5f3e3d5ffd5b505050506001600160a01b0383165f908152600360205260408120805484929061086a908490610f24565b925050819055505f7f00000000000000000000000000000000000000000000000000000000000000006001600160a01b031663a607a8d96040518163ffffffff1660e01b8152600401602060405180830381865afa1580156108ce573d5f5f3e3d5ffd5b505050506040513d601f19601f820116820180604052508101906108f29190610f5c565b90505f670de0b6b3a764000061090f66b1a2bc2ec5000086610f73565b6109199190610f8a565b6109239085610fa9565b90505f8261093a8368056bc75e2d63100000610f73565b6109449190610f8a565b6001600160a01b0387165f908152600260205260409020549091508082111561096b578091505b6001600160a01b0387165f9081526002602052604081208054849290610992908490610f24565b909155506109a290503383610cdc565b6040518681526001600160a01b0388169033907faef3faf684172084346f7dc2cc3bb1328d1cc23caec12dd9a82d4a4e56c00b179060200160405180910390a350505050506109f060015f55565b5050565b6109fc610c32565b805f03610a1c57604051631f2a200560e01b815260040160405180910390fd5b5f610a2633610d51565b90505f670de0b6b3a7640000610a44670a688906bd8b000084610f73565b610a4e9190610f8a565b335f908152600360205260409020549091508190610a6d908590610fa9565b1115610a8c576040516397ba4de360e01b815260040160405180910390fd5b335f9081526003602052604081208054859290610aaa908490610fa9565b90915550506040516340c10f1960e01b8152336004820152602481018490527f00000000000000000000000000000000000000000000000000000000000000006001600160a01b0316906340c10f19906044015f604051808303815f87803b158015610b14575f5ffd5b505af1158015610b26573d5f5f3e3d5ffd5b50506040518581523392507fcbc04eca7e9da35cb1393a6135a199ca52e450d5e9251cbd99f7847d33a36750915060200160405180910390a250506104b260015f55565b610b72610c32565b345f03610b9257604051631f2a200560e01b815260040160405180910390fd5b335f9081526002602052604081208054349290610bb0908490610fa9565b909155505060405134815233907fe1fffcc4923d04b559f4d29a8bfc6cda04eb5b0d3c460751c2402c5c5cc9109c9060200160405180910390a26106b660015f55565b610bfb610e18565b6001600160a01b038116610c2957604051631e4fbdf760e01b81525f60048201526024015b60405180910390fd5b6104b281610e45565b60025f5403610c5457604051633ee5aeb560e01b815260040160405180910390fd5b60025f55565b6001600160a01b0381165f90815260036020526040812054808203610c8257505f1992915050565b5f610c8c84610d51565b90505f670de0b6b3a7640000610caa670b1a2bc2ec50000084610f73565b610cb49190610f8a565b905082610cc9670de0b6b3a764000083610f73565b610cd39190610f8a565b95945050505050565b5f826001600160a01b0316826040515f6040518083038185875af1925050503d805f8114610d25576040519150601f19603f3d011682016040523d82523d5f602084013e610d2a565b606091505b5050905080610d4c576040516312171d8360e31b815260040160405180910390fd5b505050565b5f5f7f00000000000000000000000000000000000000000000000000000000000000006001600160a01b031663a607a8d96040518163ffffffff1660e01b8152600401602060405180830381865afa158015610daf573d5f5f3e3d5ffd5b505050506040513d601f19601f82011682018060405250810190610dd39190610f5c565b6001600160a01b0384165f908152600260205260408120549192506305f5e100610dfd8484610f73565b610e079190610f8a565b9050610cd364e8d4a5100082610f8a565b6001546001600160a01b031633146106b65760405163118cdaa760e01b8152336004820152602401610c20565b600180546001600160a01b038381166001600160a01b0319831681179093556040519116919082907f8be0079c531659141344cd1fd0a4f28419497f9722a3daafe3b4186f6b6457e0905f90a35050565b5f60208284031215610ea6575f5ffd5b5035919050565b80356001600160a01b0381168114610ec3575f5ffd5b919050565b5f60208284031215610ed8575f5ffd5b610ee182610ead565b9392505050565b5f5f60408385031215610ef9575f5ffd5b610f0283610ead565b946020939093013593505050565b634e487b7160e01b5f52601160045260245ffd5b81810381811115610f3757610f37610f10565b92915050565b5f60208284031215610f4d575f5ffd5b81518015158114610ee1575f5ffd5b5f60208284031215610f6c575f5ffd5b5051919050565b8082028115828204841417610f3757610f37610f10565b5f82610fa457634e487b7160e01b5f52601260045260245ffd5b500490565b80820180821115610f3757610f37610f1056fea2646970667358221220e123f402895ec1e7cb55ac767f9ba32be19c52aa15d13631b5b149a469795c6164736f6c634300081c0033",
  "linkReferences": {},
  "deployedLinkReferences": {},
  "immutableReferences": {
    "1046": [
      {
        "length": 32,
        "start": 399
      },
      {
        "length": 32,
        "start": 1306
      },
      {
        "length": 32,
        "start": 1449
      },
      {
        "length": 32,
        "start": 1877
      },
      {
        "length": 32,
        "start": 2020
      },
      {
        "length": 32,
        "start": 2763
      }
    ],
    "1049": [
      {
        "length": 32,
        "start": 675
      },
      {
        "length": 32,
        "start": 2164
      },
      {
        "length": 32,
        "start": 3413
      }
    ],
    "1052": [
      {
        "length": 32,
        "start": 825
      }
    ]
  },
  "inputSourceName": "project/contracts/core/LendingPool.sol",
  "buildInfoId": "solc-0_8_28-dee45e84fbf4176372f7a1f8407e37a69655d3c9"
}