{
  "_format": "hh3-artifact-1",
  "contractName": "MockUSDC",
  "sourceName": "contracts/core/MockUSDC.sol",
  "abi": [
    {
      "inputs": [],
      "stateMutability": "nonpayable",
      "type": "constructor"
    },
    {
      "inputs": [
        {
          "internalType": "address",
          "name": "spender",
          "type": "address"
        },
        {
          "internalType": "uint256",
          "name": "allowance",
          "type": "uint256"
        },
        {
          "internalType": "uint256",
          "name": "needed",
          "type": "uint256"
        }
      ],
      "name": "ERC20InsufficientAllowance",
      "type": "error"
    },
    {
      "inputs": [
        {
          "internalType": "address",
          "name": "sender",
          "type": "address"
        },
        {
          "internalType": "uint256",
          "name": "balance",
          "type": "uint256"
        },
        {
          "internalType": "uint256",
          "name": "needed",
          "type": "uint256"
        }
      ],
      "name": "ERC20InsufficientBalance",
      "type": "error"
    },
    {
      "inputs": [
        {
          "internalType": "address",
          "name": "approver",
          "type": "address"
        }
      ],
      "name": "ERC20InvalidApprover",
      "type": "error"
    },
    {
      "inputs": [
        {
          "internalType": "address",
          "name": "receiver",
          "type": "address"
        }
      ],
      "name": "ERC20InvalidReceiver",
      "type": "error"
    },
    {
      "inputs": [
        {
          "internalType": "address",
          "name": "sender",
          "type": "address"
        }
      ],
      "name": "ERC20InvalidSender",
      "type": "error"
    },
    {
      "inputs": [
        {
          "internalType": "address",
          "name": "spender",
          "type": "address"
        }
      ],
      "name": "ERC20InvalidSpender",
      "type": "error"
    },
    {
      "inputs": [],
      "name": "NotLendingPool",
      "type": "error"
    },
    {
      "inputs": [
        {
          "internalType": "address",
          "name": "owner",
          "type": "address"
        }
      ],
      "name": "OwnableInvalidOwner",
      "type": "error"
    },
    {
      "inputs": [
        {
          "internalType": "address",
          "name": "account",
          "type": "address"
        }
      ],
      "name": "OwnableUnauthorizedAccount",
      "type": "error"
    },
    {
      "anonymous": false,
      "inputs": [
        {
          "indexed": true,
          "internalType": "address",
          "name": "owner",
          "type": "address"
        },
        {
          "indexed": true,
          "internalType": "address",
          "name": "spender",
          "type": "address"
        },
        {
          "indexed": false,
          "internalType": "uint256",
          "name": "value",
          "type": "uint256"
        }
      ],
      "name": "Approval",
      "type": "event"
    },
    {
      "anonymous": false,
      "inputs": [
        {
          "indexed": true,
          "internalType": "address",
          "name": "previousOwner",
          "type": "address"
        },
        {
          "indexed": true,
          "internalType": "address",
          "name": "newOwner",
          "type": "address"
        }
      ],
      "name": "OwnershipTransferred",
      "type": "event"
    },
    {
      "anonymous": false,
      "inputs": [
        {
          "indexed": true,
          "internalType": "address",
          "name": "from",
          "type": "address"
        },
        {
          "indexed": true,
          "internalType": "address",
          "name": "to",
          "type": "address"
        },
        {
          "indexed": false,
          "internalType": "uint256",
          "name": "value",
          "type": "uint256"
        }
      ],
      "name": "Transfer",
      "type": "event"
    },
    {
      "inputs": [
        {
          "internalType": "address",
          "name": "owner",
          "type": "address"
        },
        {
          "internalType": "address",
          "name": "spender",
          "type": "address"
        }
      ],
      "name": "allowance",
      "outputs": [
        {
          "internalType": "uint256",
          "name": "",
          "type": "uint256"
        }
      ],
      "stateMutability": "view",
      "type": "function"
    },
    {
      "inputs": [
        {
          "internalType": "address",
          "name": "spender",
          "type": "address"
        },
        {
          "internalType": "uint256",
          "name": "value",
          "type": "uint256"
        }
      ],
      "name": "approve",
      "outputs": [
        {
          "internalType": "bool",
          "name": "",
          "type": "bool"
        }
      ],
      "stateMutability": "nonpayable",
      "type": "function"
    },
    {
      "inputs": [
        {
          "internalType": "address",
          "name": "account",
          "type": "address"
        }
      ],
      "name": "balanceOf",
      "outputs": [
        {
          "internalType": "uint256",
          "name": "",
          "type": "uint256"
        }
      ],
      "stateMutability": "view",
      "type": "function"
    },
    {
      "inputs": [
        {
          "internalType": "address",
          "name": "from",
          "type": "address"
        },
        {
          "internalType": "uint256",
          "name": "amount",
          "type": "uint256"
        }
      ],
      "name": "burn",
      "outputs": [],
      "stateMutability": "nonpayable",
      "type": "function"
    },
    {
      "inputs": [],
      "name": "decimals",
      "outputs": [
        {
          "internalType": "uint8",
          "name": "",
          "type": "uint8"
        }
      ],
      "stateMutability": "view",
      "type": "function"
    },
    {
      "inputs": [],
      "name": "lendingPool",
      "outputs": [
        {
          "internalType": "address",
          "name": "",
          "type": "address"
        }
      ],
      "stateMutability": "view",
      "type": "function"
    },
    {
      "inputs": [
        {
          "internalType": "address",
          "name": "to",
          "type": "address"
        },
        {
          "internalType": "uint256",
          "name": "amount",
          "type": "uint256"
        }
      ],
      "name": "mint",
      "outputs": [],
      "stateMutability": "nonpayable",
      "type": "function"
    },
    {
      "inputs": [],
      "name": "name",
      "outputs": [
        {
          "internalType": "string",
          "name": "",
          "type": "string"
        }
      ],
      "stateMutability": "view",
      "type": "function"
    },
    {
      "inputs": [],
      "name": "owner",
      "outputs": [
        {
          "internalType": "address",
          "name": "",
          "type": "address"
        }
      ],
      "stateMutability": "view",
      "type": "function"
    },
    {
      "inputs": [],
      "name": "renounceOwnership",
      "outputs": [],
      "stateMutability": "nonpayable",
      "type": "function"
    },
    {
      "inputs": [
        {
          "internalType": "address",
          "name": "_pool",
          "type": "address"
        }
      ],
      "name": "setLendingPool",
      "outputs": [],
      "stateMutability": "nonpayable",
      "type": "function"
    },
    {
      "inputs": [],
      "name": "symbol",
      "outputs": [
        {
          "internalType": "string",
          "name": "",
          "type": "string"
        }
      ],
      "stateMutability": "view",
      "type": "function"
    },
    {
      "inputs": [],
      "name": "totalSupply",
      "outputs": [
        {
          "internalType": "uint256",
          "name": "",
          "type": "uint256"
        }
      ],
      "stateMutability": "view",
      "type": "function"
    },
    {
      "inputs": [
        {
          "internalType": "address",
          "name": "to",
          "type": "address"
        },
        {
          "internalType": "uint256",
          "name": "value",
          "type": "uint256"
        }
      ],
      "name": "transfer",
      "outputs": [
        {
          "internalType": "bool",
          "name": "",
          "type": "bool"
        }
      ],
      "stateMutability": "nonpayable",
      "type": "function"
    },
    {
      "inputs": [
        {
          "internalType": "address",
          "name": "from",
          "type": "address"
        },
        {
          "internalType": "address",
          "name": "to",
          "type": "address"
        },
        {
          "internalType": "uint256",
          "name": "value",
          "type": "uint256"
        }
      ],
      "name": "transferFrom",
      "outputs": [
        {
          "internalType": "bool",
          "name": "",
          "type": "bool"
        }
      ],
      "stateMutability": "nonpayable",
      "type": "function"
    },
    {
      "inputs": [
        {
          "internalType": "address",
          "name": "newOwner",
          "type": "address"
        }
      ],
      "name": "transferOwnership",
      "outputs": [],
      "stateMutability": "nonpayable",
      "type": "function"
    }
  ],
  "bytecode": "0x608060405234801561000f575f5ffd5b50336040518060400160405280600e81526020016d26b7b1b5902aa9a2219021b7b4b760911b815250604051806040016040528060058152602001646d5553444360d81b8152508160039081610065919061019a565b506004610072828261019a565b5050506001600160a01b0381166100a257604051631e4fbdf760e01b81525f600482015260240160405180910390fd5b6100ab816100b1565b50610254565b600580546001600160a01b038381166001600160a01b0319831681179093556040519116919082907f8be0079c531659141344cd1fd0a4f28419497f9722a3daafe3b4186f6b6457e0905f90a35050565b634e487b7160e01b5f52604160045260245ffd5b600181811c9082168061012a57607f821691505b60208210810361014857634e487b7160e01b5f52602260045260245ffd5b50919050565b601f82111561019557805f5260205f20601f840160051c810160208510156101735750805b601f840160051c820191505b81811015610192575f815560010161017f565b50505b505050565b81516001600160401b038111156101b3576101b3610102565b6101c7816101c18454610116565b8461014e565b6020601f8211600181146101f9575f83156101e25750848201515b5f19600385901b1c1916600184901b178455610192565b5f84815260208120601f198516915b828110156102285787850151825560209485019460019092019101610208565b508482101561024557868401515f19600387901b60f8161c191681555b50505050600190811b01905550565b6109ab806102615f395ff3fe608060405234801561000f575f5ffd5b50600436106100fb575f3560e01c8063715018a611610093578063a59a997311610063578063a59a99731461020c578063a9059cbb1461021f578063dd62ed3e14610232578063f2fde38b1461026a575f5ffd5b8063715018a6146101c45780638da5cb5b146101cc57806395d89b41146101f15780639dc29fac146101f9575f5ffd5b806323b872dd116100ce57806323b872dd14610167578063313ce5671461017a57806340c10f191461018957806370a082311461019c575f5ffd5b806306fdde03146100ff578063095ea7b31461011d578063113aa8b11461014057806318160ddd14610155575b5f5ffd5b61010761027d565b604051610114919061081b565b60405180910390f35b61013061012b36600461086b565b61030d565b6040519015158152602001610114565b61015361014e366004610893565b610326565b005b6002545b604051908152602001610114565b6101306101753660046108b3565b610350565b60405160068152602001610114565b61015361019736600461086b565b610373565b6101596101aa366004610893565b6001600160a01b03165f9081526020819052604090205490565b6101536103ac565b6005546001600160a01b03165b6040516001600160a01b039091168152602001610114565b6101076103bf565b61015361020736600461086b565b6103ce565b6006546101d9906001600160a01b031681565b61013061022d36600461086b565b610403565b6101596102403660046108ed565b6001600160a01b039182165f90815260016020908152604080832093909416825291909152205490565b610153610278366004610893565b610410565b60606003805461028c9061091e565b80601f01602080910402602001604051908101604052809291908181526020018280546102b89061091e565b80156103035780601f106102da57610100808354040283529160200191610303565b820191905f5260205f20905b8154815290600101906020018083116102e657829003601f168201915b5050505050905090565b5f3361031a818585610452565b60019150505b92915050565b61032e610464565b600680546001600160a01b0319166001600160a01b0392909216919091179055565b5f3361035d858285610491565b61036885858561050d565b506001949350505050565b6006546001600160a01b0316331461039e5760405163deefa58960e01b815260040160405180910390fd5b6103a8828261056a565b5050565b6103b4610464565b6103bd5f61059e565b565b60606004805461028c9061091e565b6006546001600160a01b031633146103f95760405163deefa58960e01b815260040160405180910390fd5b6103a882826105ef565b5f3361031a81858561050d565b610418610464565b6001600160a01b03811661044657604051631e4fbdf760e01b81525f60048201526024015b60405180910390fd5b61044f8161059e565b50565b61045f8383836001610623565b505050565b6005546001600160a01b031633146103bd5760405163118cdaa760e01b815233600482015260240161043d565b6001600160a01b038381165f908152600160209081526040808320938616835292905220545f1981101561050757818110156104f957604051637dc7a0d960e11b81526001600160a01b0384166004820152602481018290526044810183905260640161043d565b61050784848484035f610623565b50505050565b6001600160a01b03831661053657604051634b637e8f60e11b81525f600482015260240161043d565b6001600160a01b03821661055f5760405163ec442f0560e01b81525f600482015260240161043d565b61045f8383836106f5565b6001600160a01b0382166105935760405163ec442f0560e01b81525f600482015260240161043d565b6103a85f83836106f5565b600580546001600160a01b038381166001600160a01b0319831681179093556040519116919082907f8be0079c531659141344cd1fd0a4f28419497f9722a3daafe3b4186f6b6457e0905f90a35050565b6001600160a01b03821661061857604051634b637e8f60e11b81525f600482015260240161043d565b6103a8825f836106f5565b6001600160a01b03841661064c5760405163e602df0560e01b81525f600482015260240161043d565b6001600160a01b03831661067557604051634a1406b160e11b81525f600482015260240161043d565b6001600160a01b038085165f908152600160209081526040808320938716835292905220829055801561050757826001600160a01b0316846001600160a01b03167f8c5be1e5ebec7d5bd14f71427d1e84f3dd0314c0f7b2291e5b200ac8c7c3b925846040516106e791815260200190565b60405180910390a350505050565b6001600160a01b03831661071f578060025f8282546107149190610956565b9091555061078f9050565b6001600160a01b0383165f90815260208190526040902054818110156107715760405163391434e360e21b81526001600160a01b0385166004820152602481018290526044810183905260640161043d565b6001600160a01b0384165f9081526020819052604090209082900390555b6001600160a01b0382166107ab576002805482900390556107c9565b6001600160a01b0382165f9081526020819052604090208054820190555b816001600160a01b0316836001600160a01b03167fddf252ad1be2c89b69c2b068fc378daa952ba7f163c4a11628f55a4df523b3ef8360405161080e91815260200190565b60405180910390a3505050565b602081525f82518060208401528060208501604085015e5f604082850101526040601f19601f83011684010191505092915050565b80356001600160a01b0381168114610866575f5ffd5b919050565b5f5f6040838503121561087c575f5ffd5b61088583610850565b946020939093013593505050565b5f602082840312156108a3575f5ffd5b6108ac82610850565b9392505050565b5f5f5f606084860312156108c5575f5ffd5b6108ce84610850565b92506108dc60208501610850565b929592945050506040919091013590565b5f5f604083850312156108fe575f5ffd5b61090783610850565b915061091560208401610850565b90509250929050565b600181811c9082168061093257607f821691505b60208210810361095057634e487b7160e01b5f52602260045260245ffd5b50919050565b8082018082111561032057634e487b7160e01b5f52601160045260245ffdfea264697066735822122079a826b797b0a0580b34eeca45db42730c858c1fdeec716f29b41b082abd282164736f6c634300081c0033",
  "linkReferences": {},
  "deployedLinkReferences": {},
  "immutableReferences": {},
  "inputSourceName": "project/contracts/core/MockUSDC.sol",
  "buildInfoId": "solc-0_8_28-e9282ad09f28508a841b4a7ed229c05a5acc6887"
}